{
  "contractName": "EIP521",
  "abi": [
    {
      "constant": true,
      "inputs": [],
      "name": "name",
      "outputs": [
        {
          "name": "",
          "type": "string"
        }
      ],
      "payable": false,
      "stateMutability": "view",
      "type": "function"
    },
    {
      "constant": false,
      "inputs": [
        {
          "name": "spender",
          "type": "address"
        },
        {
          "name": "tokens",
          "type": "uint256"
        }
      ],
      "name": "approve",
      "outputs": [
        {
          "name": "success",
          "type": "bool"
        }
      ],
      "payable": false,
      "stateMutability": "nonpayable",
      "type": "function"
    },
    {
      "constant": true,
      "inputs": [],
      "name": "lastRewardEthBlockNumber",
      "outputs": [
        {
          "name": "",
          "type": "uint256"
        }
      ],
      "payable": false,
      "stateMutability": "view",
      "type": "function"
    },
    {
      "constant": true,
      "inputs": [],
      "name": "getMiningDifficulty",
      "outputs": [
        {
          "name": "",
          "type": "uint256"
        }
      ],
      "payable": false,
      "stateMutability": "view",
      "type": "function"
    },
    {
      "constant": false,
      "inputs": [
        {
          "name": "nonce",
          "type": "uint256"
        },
        {
          "name": "challenge_digest",
          "type": "bytes32"
        }
      ],
      "name": "mint",
      "outputs": [
        {
          "name": "success",
          "type": "bool"
        }
      ],
      "payable": false,
      "stateMutability": "nonpayable",
      "type": "function"
    },
    {
      "constant": true,
      "inputs": [],
      "name": "totalSupply",
      "outputs": [
        {
          "name": "",
          "type": "uint256"
        }
      ],
      "payable": false,
      "stateMutability": "view",
      "type": "function"
    },
    {
      "constant": false,
      "inputs": [
        {
          "name": "from",
          "type": "address"
        },
        {
          "name": "to",
          "type": "address"
        },
        {
          "name": "tokens",
          "type": "uint256"
        }
      ],
      "name": "transferFrom",
      "outputs": [
        {
          "name": "success",
          "type": "bool"
        }
      ],
      "payable": false,
      "stateMutability": "nonpayable",
      "type": "function"
    },
    {
      "constant": true,
      "inputs": [],
      "name": "rewardEra",
      "outputs": [
        {
          "name": "",
          "type": "uint256"
        }
      ],
      "payable": false,
      "stateMutability": "view",
      "type": "function"
    },
    {
      "constant": true,
      "inputs": [],
      "name": "decimals",
      "outputs": [
        {
          "name": "",
          "type": "uint8"
        }
      ],
      "payable": false,
      "stateMutability": "view",
      "type": "function"
    },
    {
      "constant": true,
      "inputs": [],
      "name": "getMiningTarget",
      "outputs": [
        {
          "name": "",
          "type": "uint256"
        }
      ],
      "payable": false,
      "stateMutability": "view",
      "type": "function"
    },
    {
      "constant": true,
      "inputs": [],
      "name": "_totalSupply",
      "outputs": [
        {
          "name": "",
          "type": "uint256"
        }
      ],
      "payable": false,
      "stateMutability": "view",
      "type": "function"
    },
    {
      "constant": true,
      "inputs": [],
      "name": "getMiningReward",
      "outputs": [
        {
          "name": "",
          "type": "uint256"
        }
      ],
      "payable": false,
      "stateMutability": "view",
      "type": "function"
    },
    {
      "constant": true,
      "inputs": [],
      "name": "getChallengeNumber",
      "outputs": [
        {
          "name": "",
          "type": "bytes32"
        }
      ],
      "payable": false,
      "stateMutability": "view",
      "type": "function"
    },
    {
      "constant": true,
      "inputs": [],
      "name": "maxSupplyForEra",
      "outputs": [
        {
          "name": "",
          "type": "uint256"
        }
      ],
      "payable": false,
      "stateMutability": "view",
      "type": "function"
    },
    {
      "constant": true,
      "inputs": [],
      "name": "tokensMinted",
      "outputs": [
        {
          "name": "",
          "type": "uint256"
        }
      ],
      "payable": false,
      "stateMutability": "view",
      "type": "function"
    },
    {
      "constant": true,
      "inputs": [],
      "name": "lastRewardTo",
      "outputs": [
        {
          "name": "",
          "type": "address"
        }
      ],
      "payable": false,
      "stateMutability": "view",
      "type": "function"
    },
    {
      "constant": true,
      "inputs": [
        {
          "name": "tokenOwner",
          "type": "address"
        }
      ],
      "name": "balanceOf",
      "outputs": [
        {
          "name": "balance",
          "type": "uint256"
        }
      ],
      "payable": false,
      "stateMutability": "view",
      "type": "function"
    },
    {
      "constant": false,
      "inputs": [],
      "name": "acceptOwnership",
      "outputs": [],
      "payable": false,
      "stateMutability": "nonpayable",
      "type": "function"
    },
    {
      "constant": true,
      "inputs": [
        {
          "name": "nonce",
          "type": "uint256"
        },
        {
          "name": "challenge_digest",
          "type": "bytes32"
        },
        {
          "name": "challenge_number",
          "type": "bytes32"
        },
        {
          "name": "testTarget",
          "type": "uint256"
        }
      ],
      "name": "checkMintSolution",
      "outputs": [
        {
          "name": "success",
          "type": "bool"
        }
      ],
      "payable": false,
      "stateMutability": "view",
      "type": "function"
    },
    {
      "constant": true,
      "inputs": [],
      "name": "epochCount",
      "outputs": [
        {
          "name": "",
          "type": "uint256"
        }
      ],
      "payable": false,
      "stateMutability": "view",
      "type": "function"
    },
    {
      "constant": true,
      "inputs": [],
      "name": "_MAXIMUM_TARGET",
      "outputs": [
        {
          "name": "",
          "type": "uint256"
        }
      ],
      "payable": false,
      "stateMutability": "view",
      "type": "function"
    },
    {
      "constant": true,
      "inputs": [],
      "name": "miningTarget",
      "outputs": [
        {
          "name": "",
          "type": "uint256"
        }
      ],
      "payable": false,
      "stateMutability": "view",
      "type": "function"
    },
    {
      "constant": true,
      "inputs": [],
      "name": "challengeNumber",
      "outputs": [
        {
          "name": "",
          "type": "bytes32"
        }
      ],
      "payable": false,
      "stateMutability": "view",
      "type": "function"
    },
    {
      "constant": true,
      "inputs": [],
      "name": "owner",
      "outputs": [
        {
          "name": "",
          "type": "address"
        }
      ],
      "payable": false,
      "stateMutability": "view",
      "type": "function"
    },
    {
      "constant": true,
      "inputs": [],
      "name": "symbol",
      "outputs": [
        {
          "name": "",
          "type": "string"
        }
      ],
      "payable": false,
      "stateMutability": "view",
      "type": "function"
    },
    {
      "constant": true,
      "inputs": [
        {
          "name": "nonce",
          "type": "uint256"
        },
        {
          "name": "challenge_digest",
          "type": "bytes32"
        },
        {
          "name": "challenge_number",
          "type": "bytes32"
        }
      ],
      "name": "getMintDigest",
      "outputs": [
        {
          "name": "digesttest",
          "type": "bytes32"
        }
      ],
      "payable": false,
      "stateMutability": "view",
      "type": "function"
    },
    {
      "constant": false,
      "inputs": [
        {
          "name": "to",
          "type": "address"
        },
        {
          "name": "tokens",
          "type": "uint256"
        }
      ],
      "name": "transfer",
      "outputs": [
        {
          "name": "success",
          "type": "bool"
        }
      ],
      "payable": false,
      "stateMutability": "nonpayable",
      "type": "function"
    },
    {
      "constant": true,
      "inputs": [],
      "name": "_BLOCKS_PER_READJUSTMENT",
      "outputs": [
        {
          "name": "",
          "type": "uint256"
        }
      ],
      "payable": false,
      "stateMutability": "view",
      "type": "function"
    },
    {
      "constant": true,
      "inputs": [],
      "name": "lastRewardAmount",
      "outputs": [
        {
          "name": "",
          "type": "uint256"
        }
      ],
      "payable": false,
      "stateMutability": "view",
      "type": "function"
    },
    {
      "constant": false,
      "inputs": [
        {
          "name": "spender",
          "type": "address"
        },
        {
          "name": "tokens",
          "type": "uint256"
        },
        {
          "name": "data",
          "type": "bytes"
        }
      ],
      "name": "approveAndCall",
      "outputs": [
        {
          "name": "success",
          "type": "bool"
        }
      ],
      "payable": false,
      "stateMutability": "nonpayable",
      "type": "function"
    },
    {
      "constant": true,
      "inputs": [],
      "name": "latestDifficultyPeriodStarted",
      "outputs": [
        {
          "name": "",
          "type": "uint256"
        }
      ],
      "payable": false,
      "stateMutability": "view",
      "type": "function"
    },
    {
      "constant": true,
      "inputs": [],
      "name": "newOwner",
      "outputs": [
        {
          "name": "",
          "type": "address"
        }
      ],
      "payable": false,
      "stateMutability": "view",
      "type": "function"
    },
    {
      "constant": false,
      "inputs": [
        {
          "name": "tokenAddress",
          "type": "address"
        },
        {
          "name": "tokens",
          "type": "uint256"
        }
      ],
      "name": "transferAnyERC20Token",
      "outputs": [
        {
          "name": "success",
          "type": "bool"
        }
      ],
      "payable": false,
      "stateMutability": "nonpayable",
      "type": "function"
    },
    {
      "constant": true,
      "inputs": [],
      "name": "_MINIMUM_TARGET",
      "outputs": [
        {
          "name": "",
          "type": "uint256"
        }
      ],
      "payable": false,
      "stateMutability": "view",
      "type": "function"
    },
    {
      "constant": true,
      "inputs": [
        {
          "name": "tokenOwner",
          "type": "address"
        },
        {
          "name": "spender",
          "type": "address"
        }
      ],
      "name": "allowance",
      "outputs": [
        {
          "name": "remaining",
          "type": "uint256"
        }
      ],
      "payable": false,
      "stateMutability": "view",
      "type": "function"
    },
    {
      "constant": false,
      "inputs": [],
      "name": "_0xBitcoinToken",
      "outputs": [],
      "payable": false,
      "stateMutability": "nonpayable",
      "type": "function"
    },
    {
      "constant": false,
      "inputs": [
        {
          "name": "_newOwner",
          "type": "address"
        }
      ],
      "name": "transferOwnership",
      "outputs": [],
      "payable": false,
      "stateMutability": "nonpayable",
      "type": "function"
    },
    {
      "payable": true,
      "stateMutability": "payable",
      "type": "fallback"
    },
    {
      "anonymous": false,
      "inputs": [
        {
          "indexed": true,
          "name": "from",
          "type": "address"
        },
        {
          "indexed": false,
          "name": "reward_amount",
          "type": "uint256"
        },
        {
          "indexed": false,
          "name": "epochCount",
          "type": "uint256"
        },
        {
          "indexed": false,
          "name": "newChallengeNumber",
          "type": "bytes32"
        }
      ],
      "name": "Mint",
      "type": "event"
    },
    {
      "anonymous": false,
      "inputs": [
        {
          "indexed": true,
          "name": "_from",
          "type": "address"
        },
        {
          "indexed": true,
          "name": "_to",
          "type": "address"
        }
      ],
      "name": "OwnershipTransferred",
      "type": "event"
    },
    {
      "anonymous": false,
      "inputs": [
        {
          "indexed": true,
          "name": "_from",
          "type": "address"
        },
        {
          "indexed": true,
          "name": "_to",
          "type": "address"
        },
        {
          "indexed": false,
          "name": "_value",
          "type": "uint256"
        }
      ],
      "name": "Transfer",
      "type": "event"
    },
    {
      "anonymous": false,
      "inputs": [
        {
          "indexed": true,
          "name": "_owner",
          "type": "address"
        },
        {
          "indexed": true,
          "name": "_spender",
          "type": "address"
        },
        {
          "indexed": false,
          "name": "_value",
          "type": "uint256"
        }
      ],
      "name": "Approval",
      "type": "event"
    }
  ],
  "bytecode": "0x6060604052610400600855620100006009557d040000000000000000000000000000000000000000000000000000000000600a556000601260006101000a81548160ff021916908315150217905550336000806101000a81548173ffffffffffffffffffffffffffffffffffffffff021916908373ffffffffffffffffffffffffffffffffffffffff1602179055506122f58061009d6000396000f3006060604052600436106101cd576000357c0100000000000000000000000000000000000000000000000000000000900463ffffffff16806306fdde03146101d2578063095ea7b314610260578063163aa00d146102ba57806317da485f146102e35780631801fbe51461030c57806318160ddd1461035457806323b872dd1461037d5780632d38bf7a146103f6578063313ce5671461041f57806332e997081461044e5780633eaaf86b14610477578063490203a7146104a05780634ef37628146104c95780634fa972e1146104fa5780636de9f32b146105235780636fd396d61461054c57806370a08231146105a157806379ba5097146105ee57806381269a5614610603578063829965cc1461066157806387a2a9d61461068a5780638a769d35146106b35780638ae0368b146106dc5780638da5cb5b1461070d57806395d89b411461076257806397566aa0146107f0578063a9059cbb14610849578063b5ade81b146108a3578063bafedcaa146108cc578063cae9ca51146108f5578063cb9ae70714610992578063d4ee1d90146109bb578063dc39d06d14610a10578063dc6e9cf914610a6a578063dd62ed3e14610a93578063eb66599414610aff578063f2fde38b14610b14575b600080fd5b34156101dd57600080fd5b6101e5610b4d565b6040518080602001828103825283818151815260200191508051906020019080838360005b8381101561022557808201518184015260208101905061020a565b50505050905090810190601f1680156102525780820380516001836020036101000a031916815260200191505b509250505060405180910390f35b341561026b57600080fd5b6102a0600480803573ffffffffffffffffffffffffffffffffffffffff16906020019091908035906020019091905050610beb565b604051808215151515815260200191505060405180910390f35b34156102c557600080fd5b6102cd610cdd565b6040518082815260200191505060405180910390f35b34156102ee57600080fd5b6102f6610ce3565b6040518082815260200191505060405180910390f35b341561031757600080fd5b61033a600480803590602001909190803560001916906020019091905050610d01565b604051808215151515815260200191505060405180910390f35b341561035f57600080fd5b610367610f91565b6040518082815260200191505060405180910390f35b341561038857600080fd5b6103dc600480803573ffffffffffffffffffffffffffffffffffffffff1690602001909190803573ffffffffffffffffffffffffffffffffffffffff16906020019091908035906020019091905050610fdc565b604051808215151515815260200191505060405180910390f35b341561040157600080fd5b610409611287565b6040518082815260200191505060405180910390f35b341561042a57600080fd5b61043261128d565b604051808260ff1660ff16815260200191505060405180910390f35b341561045957600080fd5b6104616112a0565b6040518082815260200191505060405180910390f35b341561048257600080fd5b61048a6112aa565b6040518082815260200191505060405180910390f35b34156104ab57600080fd5b6104b36112b0565b6040518082815260200191505060405180910390f35b34156104d457600080fd5b6104dc6112e7565b60405180826000191660001916815260200191505060405180910390f35b341561050557600080fd5b61050d6112f1565b6040518082815260200191505060405180910390f35b341561052e57600080fd5b6105366112f7565b6040518082815260200191505060405180910390f35b341561055757600080fd5b61055f6112fd565b604051808273ffffffffffffffffffffffffffffffffffffffff1673ffffffffffffffffffffffffffffffffffffffff16815260200191505060405180910390f35b34156105ac57600080fd5b6105d8600480803573ffffffffffffffffffffffffffffffffffffffff16906020019091905050611323565b6040518082815260200191505060405180910390f35b34156105f957600080fd5b61060161136c565b005b341561060e57600080fd5b6106476004808035906020019091908035600019169060200190919080356000191690602001909190803590602001909190505061150b565b604051808215151515815260200191505060405180910390f35b341561066c57600080fd5b6106746115a0565b6040518082815260200191505060405180910390f35b341561069557600080fd5b61069d6115a6565b6040518082815260200191505060405180910390f35b34156106be57600080fd5b6106c66115ac565b6040518082815260200191505060405180910390f35b34156106e757600080fd5b6106ef6115b2565b60405180826000191660001916815260200191505060405180910390f35b341561071857600080fd5b6107206115b8565b604051808273ffffffffffffffffffffffffffffffffffffffff1673ffffffffffffffffffffffffffffffffffffffff16815260200191505060405180910390f35b341561076d57600080fd5b6107756115dd565b6040518080602001828103825283818151815260200191508051906020019080838360005b838110156107b557808201518184015260208101905061079a565b50505050905090810190601f1680156107e25780820380516001836020036101000a031916815260200191505b509250505060405180910390f35b34156107fb57600080fd5b61082b6004808035906020019091908035600019169060200190919080356000191690602001909190505061167b565b60405180826000191660001916815260200191505060405180910390f35b341561085457600080fd5b610889600480803573ffffffffffffffffffffffffffffffffffffffff169060200190919080359060200190919050506116f4565b604051808215151515815260200191505060405180910390f35b34156108ae57600080fd5b6108b661188f565b6040518082815260200191505060405180910390f35b34156108d757600080fd5b6108df611895565b6040518082815260200191505060405180910390f35b341561090057600080fd5b610978600480803573ffffffffffffffffffffffffffffffffffffffff1690602001909190803590602001909190803590602001908201803590602001908080601f0160208091040260200160405190810160405280939291908181526020018383808284378201915050505050509190505061189b565b604051808215151515815260200191505060405180910390f35b341561099d57600080fd5b6109a5611ae5565b6040518082815260200191505060405180910390f35b34156109c657600080fd5b6109ce611aeb565b604051808273ffffffffffffffffffffffffffffffffffffffff1673ffffffffffffffffffffffffffffffffffffffff16815260200191505060405180910390f35b3415610a1b57600080fd5b610a50600480803573ffffffffffffffffffffffffffffffffffffffff16906020019091908035906020019091905050611b11565b604051808215151515815260200191505060405180910390f35b3415610a7557600080fd5b610a7d611c5d565b6040518082815260200191505060405180910390f35b3415610a9e57600080fd5b610ae9600480803573ffffffffffffffffffffffffffffffffffffffff1690602001909190803573ffffffffffffffffffffffffffffffffffffffff16906020019091905050611c63565b6040518082815260200191505060405180910390f35b3415610b0a57600080fd5b610b12611cea565b005b3415610b1f57600080fd5b610b4b600480803573ffffffffffffffffffffffffffffffffffffffff16906020019091905050611e96565b005b60038054600181600116156101000203166002900480601f016020809104026020016040519081016040528092919081815260200182805460018160011615610100020316600290048015610be35780601f10610bb857610100808354040283529160200191610be3565b820191906000526020600020905b815481529060010190602001808311610bc657829003601f168201915b505050505081565b600081601660003373ffffffffffffffffffffffffffffffffffffffff1673ffffffffffffffffffffffffffffffffffffffff16815260200190815260200160002060008573ffffffffffffffffffffffffffffffffffffffff1673ffffffffffffffffffffffffffffffffffffffff168152602001908152602001600020819055508273ffffffffffffffffffffffffffffffffffffffff163373ffffffffffffffffffffffffffffffffffffffff167f8c5be1e5ebec7d5bd14f71427d1e84f3dd0314c0f7b2291e5b200ac8c7c3b925846040518082815260200191505060405180910390a36001905092915050565b60115481565b6000610cfc600b54600a54611f3590919063ffffffff16565b905090565b600080600080600c5433876040518084600019166000191681526020018373ffffffffffffffffffffffffffffffffffffffff1673ffffffffffffffffffffffffffffffffffffffff166c0100000000000000000000000002815260140182815260200193505050506040518091039020925084600019168360001916141515610d8a57600080fd5b600b5483600190041115610d9d57600080fd5b60136000600c54600019166000191681526020019081526020016000205491508260136000600c5460001916600019168152602001908152602001600020816000191690555060006001028260001916141515610df957600080fd5b610e016112b0565b9050610e5581601560003373ffffffffffffffffffffffffffffffffffffffff1673ffffffffffffffffffffffffffffffffffffffff16815260200190815260200160002054611f5990919063ffffffff16565b601560003373ffffffffffffffffffffffffffffffffffffffff1673ffffffffffffffffffffffffffffffffffffffff16815260200190815260200160002081905550610ead81601454611f5990919063ffffffff16565b601481905550600e5460145411151515610ec357fe5b33600f60006101000a81548173ffffffffffffffffffffffffffffffffffffffff021916908373ffffffffffffffffffffffffffffffffffffffff1602179055508060108190555043601181905550610f1a611f75565b3373ffffffffffffffffffffffffffffffffffffffff167fcf6fbb9dcea7d07263ab4f5c3a92f53af33dffc421d9d121e1c74b307e68189d82600754600c54604051808481526020018381526020018260001916600019168152602001935050505060405180910390a26001935050505092915050565b6000601560008073ffffffffffffffffffffffffffffffffffffffff1673ffffffffffffffffffffffffffffffffffffffff1681526020019081526020016000205460055403905090565b600061103082601560008773ffffffffffffffffffffffffffffffffffffffff1673ffffffffffffffffffffffffffffffffffffffff1681526020019081526020016000205461202a90919063ffffffff16565b601560008673ffffffffffffffffffffffffffffffffffffffff1673ffffffffffffffffffffffffffffffffffffffff1681526020019081526020016000208190555061110282601660008773ffffffffffffffffffffffffffffffffffffffff1673ffffffffffffffffffffffffffffffffffffffff16815260200190815260200160002060003373ffffffffffffffffffffffffffffffffffffffff1673ffffffffffffffffffffffffffffffffffffffff1681526020019081526020016000205461202a90919063ffffffff16565b601660008673ffffffffffffffffffffffffffffffffffffffff1673ffffffffffffffffffffffffffffffffffffffff16815260200190815260200160002060003373ffffffffffffffffffffffffffffffffffffffff1673ffffffffffffffffffffffffffffffffffffffff168152602001908152602001600020819055506111d482601560008673ffffffffffffffffffffffffffffffffffffffff1673ffffffffffffffffffffffffffffffffffffffff16815260200190815260200160002054611f5990919063ffffffff16565b601560008573ffffffffffffffffffffffffffffffffffffffff1673ffffffffffffffffffffffffffffffffffffffff168152602001908152602001600020819055508273ffffffffffffffffffffffffffffffffffffffff168473ffffffffffffffffffffffffffffffffffffffff167fddf252ad1be2c89b69c2b068fc378daa952ba7f163c4a11628f55a4df523b3ef846040518082815260200191505060405180910390a3600190509392505050565b600d5481565b600460009054906101000a900460ff1681565b6000600b54905090565b60055481565b60006112e2600d5460020a600460009054906101000a900460ff1660ff16600a0a603202611f3590919063ffffffff16565b905090565b6000600c54905090565b600e5481565b60145481565b600f60009054906101000a900473ffffffffffffffffffffffffffffffffffffffff1681565b6000601560008373ffffffffffffffffffffffffffffffffffffffff1673ffffffffffffffffffffffffffffffffffffffff168152602001908152602001600020549050919050565b600160009054906101000a900473ffffffffffffffffffffffffffffffffffffffff1673ffffffffffffffffffffffffffffffffffffffff163373ffffffffffffffffffffffffffffffffffffffff161415156113c857600080fd5b600160009054906101000a900473ffffffffffffffffffffffffffffffffffffffff1673ffffffffffffffffffffffffffffffffffffffff166000809054906101000a900473ffffffffffffffffffffffffffffffffffffffff1673ffffffffffffffffffffffffffffffffffffffff167f8be0079c531659141344cd1fd0a4f28419497f9722a3daafe3b4186f6b6457e060405160405180910390a3600160009054906101000a900473ffffffffffffffffffffffffffffffffffffffff166000806101000a81548173ffffffffffffffffffffffffffffffffffffffff021916908373ffffffffffffffffffffffffffffffffffffffff1602179055506000600160006101000a81548173ffffffffffffffffffffffffffffffffffffffff021916908373ffffffffffffffffffffffffffffffffffffffff160217905550565b6000808333876040518084600019166000191681526020018373ffffffffffffffffffffffffffffffffffffffff1673ffffffffffffffffffffffffffffffffffffffff166c01000000000000000000000000028152601401828152602001935050505060405180910390209050828160019004111561158a57600080fd5b8460001916816000191614915050949350505050565b60075481565b600a5481565b600b5481565b600c5481565b6000809054906101000a900473ffffffffffffffffffffffffffffffffffffffff1681565b60028054600181600116156101000203166002900480601f0160208091040260200160405190810160405280929190818152602001828054600181600116156101000203166002900480156116735780601f1061164857610100808354040283529160200191611673565b820191906000526020600020905b81548152906001019060200180831161165657829003601f168201915b505050505081565b6000808233866040518084600019166000191681526020018373ffffffffffffffffffffffffffffffffffffffff1673ffffffffffffffffffffffffffffffffffffffff166c01000000000000000000000000028152601401828152602001935050505060405180910390209050809150509392505050565b600061174882601560003373ffffffffffffffffffffffffffffffffffffffff1673ffffffffffffffffffffffffffffffffffffffff1681526020019081526020016000205461202a90919063ffffffff16565b601560003373ffffffffffffffffffffffffffffffffffffffff1673ffffffffffffffffffffffffffffffffffffffff168152602001908152602001600020819055506117dd82601560008673ffffffffffffffffffffffffffffffffffffffff1673ffffffffffffffffffffffffffffffffffffffff16815260200190815260200160002054611f5990919063ffffffff16565b601560008573ffffffffffffffffffffffffffffffffffffffff1673ffffffffffffffffffffffffffffffffffffffff168152602001908152602001600020819055508273ffffffffffffffffffffffffffffffffffffffff163373ffffffffffffffffffffffffffffffffffffffff167fddf252ad1be2c89b69c2b068fc378daa952ba7f163c4a11628f55a4df523b3ef846040518082815260200191505060405180910390a36001905092915050565b60085481565b60105481565b600082601660003373ffffffffffffffffffffffffffffffffffffffff1673ffffffffffffffffffffffffffffffffffffffff16815260200190815260200160002060008673ffffffffffffffffffffffffffffffffffffffff1673ffffffffffffffffffffffffffffffffffffffff168152602001908152602001600020819055508373ffffffffffffffffffffffffffffffffffffffff163373ffffffffffffffffffffffffffffffffffffffff167f8c5be1e5ebec7d5bd14f71427d1e84f3dd0314c0f7b2291e5b200ac8c7c3b925856040518082815260200191505060405180910390a38373ffffffffffffffffffffffffffffffffffffffff16638f4ffcb1338530866040518563ffffffff167c0100000000000000000000000000000000000000000000000000000000028152600401808573ffffffffffffffffffffffffffffffffffffffff1673ffffffffffffffffffffffffffffffffffffffff1681526020018481526020018373ffffffffffffffffffffffffffffffffffffffff1673ffffffffffffffffffffffffffffffffffffffff16815260200180602001828103825283818151815260200191508051906020019080838360005b83811015611a78578082015181840152602081019050611a5d565b50505050905090810190601f168015611aa55780820380516001836020036101000a031916815260200191505b5095505050505050600060405180830381600087803b1515611ac657600080fd5b6102c65a03f11515611ad757600080fd5b505050600190509392505050565b60065481565b600160009054906101000a900473ffffffffffffffffffffffffffffffffffffffff1681565b60008060009054906101000a900473ffffffffffffffffffffffffffffffffffffffff1673ffffffffffffffffffffffffffffffffffffffff163373ffffffffffffffffffffffffffffffffffffffff16141515611b6e57600080fd5b8273ffffffffffffffffffffffffffffffffffffffff1663a9059cbb6000809054906101000a900473ffffffffffffffffffffffffffffffffffffffff16846000604051602001526040518363ffffffff167c0100000000000000000000000000000000000000000000000000000000028152600401808373ffffffffffffffffffffffffffffffffffffffff1673ffffffffffffffffffffffffffffffffffffffff16815260200182815260200192505050602060405180830381600087803b1515611c3a57600080fd5b6102c65a03f11515611c4b57600080fd5b50505060405180519050905092915050565b60095481565b6000601660008473ffffffffffffffffffffffffffffffffffffffff1673ffffffffffffffffffffffffffffffffffffffff16815260200190815260200160002060008373ffffffffffffffffffffffffffffffffffffffff1673ffffffffffffffffffffffffffffffffffffffff16815260200190815260200160002054905092915050565b6000809054906101000a900473ffffffffffffffffffffffffffffffffffffffff1673ffffffffffffffffffffffffffffffffffffffff163373ffffffffffffffffffffffffffffffffffffffff16141515611d4557600080fd5b6040805190810160405280600581526020017f307842544300000000000000000000000000000000000000000000000000000081525060029080519060200190611d90929190612224565b506040805190810160405280600f81526020017f3078426974636f696e20546f6b656e000000000000000000000000000000000081525060039080519060200190611ddc929190612224565b506008600460006101000a81548160ff021916908360ff160217905550600460009054906101000a900460ff1660ff16600a0a6301406f4002600581905550601260009054906101000a900460ff1615611e3557600080fd5b6001601260006101000a81548160ff02191690831515021790555060006014819055506000600d81905550611e766002600554611f3590919063ffffffff16565b600e81905550600a54600b8190555043600681905550611e94611f75565b565b6000809054906101000a900473ffffffffffffffffffffffffffffffffffffffff1673ffffffffffffffffffffffffffffffffffffffff163373ffffffffffffffffffffffffffffffffffffffff16141515611ef157600080fd5b80600160006101000a81548173ffffffffffffffffffffffffffffffffffffffff021916908373ffffffffffffffffffffffffffffffffffffffff16021790555050565b60008082111515611f4557600080fd5b8183811515611f5057fe5b04905092915050565b60008183019050828110151515611f6f57600080fd5b92915050565b600e54611f94611f836112b0565b601454611f5990919063ffffffff16565b118015611fa357506027600d54105b15611fb5576001600d5401600d819055505b611fd26001600d540160020a600554611f3590919063ffffffff16565b60055403600e81905550611ff26001600754611f5990919063ffffffff16565b600781905550600060085460075481151561200957fe5b06141561201957612018612046565b5b6001430340600c8160001916905550565b600082821115151561203b57600080fd5b818303905092915050565b6000806000806000806000600654430396506008549550603c860294508487101561210557612091876120836064886121d790919063ffffffff16565b611f3590919063ffffffff16565b93506120bb6103e86120ad60648761202a90919063ffffffff16565b61220890919063ffffffff16565b92506120fa6120e9846120db6107d0600b54611f3590919063ffffffff16565b6121d790919063ffffffff16565b600b5461202a90919063ffffffff16565b600b8190555061219b565b61212b8561211d60648a6121d790919063ffffffff16565b611f3590919063ffffffff16565b91506121556103e861214760648561202a90919063ffffffff16565b61220890919063ffffffff16565b9050612194612183826121756107d0600b54611f3590919063ffffffff16565b6121d790919063ffffffff16565b600b54611f5990919063ffffffff16565b600b819055505b43600681905550600954600b5410156121b857600954600b819055505b600a54600b5411156121ce57600a54600b819055505b50505050505050565b6000818302905060008314806121f757508183828115156121f457fe5b04145b151561220257600080fd5b92915050565b60008183111561221a5781905061221e565b8290505b92915050565b828054600181600116156101000203166002900490600052602060002090601f016020900481019282601f1061226557805160ff1916838001178555612293565b82800160010185558215612293579182015b82811115612292578251825591602001919060010190612277565b5b5090506122a091906122a4565b5090565b6122c691905b808211156122c25760008160009055506001016122aa565b5090565b905600a165627a7a723058201ccac69fc97b4a1b018510a8c514d7ca4e9aed933183713c4c195fe9a342f0df0029",
  "source": "/*\nImplements EIP521 token standard: https://github.com/ethereum/EIPs/blob/master/EIPS/eip-20.md\n.*/\n\n\npragma solidity ^0.4.18;\n\nimport \"./EIP20Interface.sol\";\n\nimport \"./EIP521Interface.sol\";\n\nimport \"./SafeMath.sol\";\n\nimport \"./ExtendedMath.sol\";\n\nimport \"./Owned.sol\";\n\n\ncontract EIP521 is EIP521Interface, Owned {\n\n    using SafeMath for uint;\n    using ExtendedMath for uint;\n\n\n        string public symbol;\n\n        string public  name;\n\n        uint8 public decimals;\n\n        uint public _totalSupply;\n\n\n\n         uint public latestDifficultyPeriodStarted;\n\n\n\n        uint public epochCount;//number of 'blocks' mined\n\n\n        uint public _BLOCKS_PER_READJUSTMENT = 1024;\n\n\n        uint public  _MINIMUM_TARGET = 2**16;\n\n\n        //a big number is easier ; just find a solution that is smaller\n        //uint public  _MAXIMUM_TARGET = 2**224;  bitcoin uses 224\n        uint public  _MAXIMUM_TARGET = 2**234;\n\n\n        uint public miningTarget;\n\n        bytes32 public challengeNumber;   //generate a new one when a new reward is minted\n\n\n\n        uint public rewardEra;\n        uint public maxSupplyForEra;\n\n\n        address public lastRewardTo;\n        uint public lastRewardAmount;\n        uint public lastRewardEthBlockNumber;\n\n        bool locked = false;\n\n        mapping(bytes32 => bytes32) solutionForChallenge;\n\n        uint public tokensMinted;\n\n        mapping(address => uint) balances;\n\n\n        mapping(address => mapping(address => uint)) allowed;\n\n\n        event Mint(address indexed from, uint reward_amount, uint epochCount, bytes32 newChallengeNumber);\n\n        // ------------------------------------------------------------------------\n\n        // Constructor\n\n        // ------------------------------------------------------------------------\n\n        function _0xBitcoinToken() public onlyOwner{\n\n\n\n            symbol = \"0xBTC\";\n\n            name = \"0xBitcoin Token\";\n\n            decimals = 8;\n\n            _totalSupply = 21000000 * 10**uint(decimals);\n\n            if(locked) revert();\n            locked = true;\n\n            tokensMinted = 0;\n\n            rewardEra = 0;\n            maxSupplyForEra = _totalSupply.div(2);\n\n            miningTarget = _MAXIMUM_TARGET;\n\n            latestDifficultyPeriodStarted = block.number;\n\n            _startNewMiningEpoch();\n\n\n            //The owner gets nothing! You must mine this ERC20 token\n            //balances[owner] = _totalSupply;\n            //Transfer(address(0), owner, _totalSupply);\n\n        }\n\n\n\n\n            function mint(uint256 nonce, bytes32 challenge_digest) public returns (bool success) {\n\n\n                //the PoW must contain work that includes a recent ethereum block hash (challenge number) and the msg.sender's address to prevent MITM attacks\n                bytes32 digest =  keccak256(challengeNumber, msg.sender, nonce );\n\n                //the challenge digest must match the expected\n                if (digest != challenge_digest) revert();\n\n                //the digest must be smaller than the target\n                if(uint256(digest) > miningTarget) revert();\n\n\n                //only allow one reward for each challenge\n                 bytes32 solution = solutionForChallenge[challengeNumber];\n                 solutionForChallenge[challengeNumber] = digest;\n                 if(solution != 0x0) revert();  //prevent the same answer from awarding twice\n\n\n                uint reward_amount = getMiningReward();\n\n                balances[msg.sender] = balances[msg.sender].add(reward_amount);\n\n                tokensMinted = tokensMinted.add(reward_amount);\n\n\n                //Cannot mint more tokens than there are\n                assert(tokensMinted <= maxSupplyForEra);\n\n                //set readonly diagnostics data\n                lastRewardTo = msg.sender;\n                lastRewardAmount = reward_amount;\n                lastRewardEthBlockNumber = block.number;\n\n\n                 _startNewMiningEpoch();\n\n                  Mint(msg.sender, reward_amount, epochCount, challengeNumber );\n\n               return true;\n\n            }\n\n\n        //a new 'block' to be mined\n        function _startNewMiningEpoch() internal {\n\n          //if max supply for the era will be exceeded next reward round then enter the new era before that happens\n\n          //40 is the final reward era, almost all tokens minted\n          //once the final era is reached, more tokens will not be given out because the assert function\n          if( tokensMinted.add(getMiningReward()) > maxSupplyForEra && rewardEra < 39)\n          {\n            rewardEra = rewardEra + 1;\n          }\n\n          //set the next minted supply at which the era will change\n          // total supply is 2100000000000000  because of 8 decimal places\n          maxSupplyForEra = _totalSupply - _totalSupply.div( 2**(rewardEra + 1));\n\n          epochCount = epochCount.add(1);\n\n          //every so often, readjust difficulty. Dont readjust when deploying\n          if(epochCount % _BLOCKS_PER_READJUSTMENT == 0)\n          {\n            _reAdjustDifficulty();\n          }\n\n\n          //make the latest ethereum block hash a part of the next challenge for PoW to prevent pre-mining future blocks\n          //do this last since this is a protection mechanism in the mint() function\n          challengeNumber = block.blockhash(block.number - 1);\n\n\n\n\n\n\n        }\n\n\n\n\n        //https://en.bitcoin.it/wiki/Difficulty#What_is_the_formula_for_difficulty.3F\n        //as of 2017 the bitcoin difficulty was up to 17 zeroes, it was only 8 in the early days\n\n        //readjust the target by 5 percent\n        function _reAdjustDifficulty() internal {\n\n\n            uint ethBlocksSinceLastDifficultyPeriod = block.number - latestDifficultyPeriodStarted;\n            //assume 360 ethereum blocks per hour\n\n            //we want miners to spend 10 minutes to mine each 'block', about 60 ethereum blocks = one 0xbitcoin epoch\n            uint epochsMined = _BLOCKS_PER_READJUSTMENT; //256\n\n            uint targetEthBlocksPerDiffPeriod = epochsMined * 60; //should be 60 times slower than ethereum\n\n            //if there were less eth blocks passed in time than expected\n            if( ethBlocksSinceLastDifficultyPeriod < targetEthBlocksPerDiffPeriod )\n            {\n              uint excess_block_pct = (targetEthBlocksPerDiffPeriod.mul(100)).div( ethBlocksSinceLastDifficultyPeriod );\n\n              uint excess_block_pct_extra = excess_block_pct.sub(100).limitLessThan(1000);\n              // If there were 5% more blocks mined than expected then this is 5.  If there were 100% more blocks mined than expected then this is 100.\n\n              //make it harder\n              miningTarget = miningTarget.sub(miningTarget.div(2000).mul(excess_block_pct_extra));   //by up to 50 %\n            }else{\n              uint shortage_block_pct = (ethBlocksSinceLastDifficultyPeriod.mul(100)).div( targetEthBlocksPerDiffPeriod );\n\n              uint shortage_block_pct_extra = shortage_block_pct.sub(100).limitLessThan(1000); //always between 0 and 1000\n\n              //make it easier\n              miningTarget = miningTarget.add(miningTarget.div(2000).mul(shortage_block_pct_extra));   //by up to 50 %\n            }\n\n\n\n            latestDifficultyPeriodStarted = block.number;\n\n            if(miningTarget < _MINIMUM_TARGET) //very difficult\n            {\n              miningTarget = _MINIMUM_TARGET;\n            }\n\n            if(miningTarget > _MAXIMUM_TARGET) //very easy\n            {\n              miningTarget = _MAXIMUM_TARGET;\n            }\n        }\n\n\n        //this is a recent ethereum block hash, used to prevent pre-mining future blocks\n        function getChallengeNumber() public constant returns (bytes32) {\n            return challengeNumber;\n        }\n\n        //the number of zeroes the digest of the PoW solution requires.  Auto adjusts\n         function getMiningDifficulty() public constant returns (uint) {\n            return _MAXIMUM_TARGET.div(miningTarget);\n        }\n\n        function getMiningTarget() public constant returns (uint) {\n           return miningTarget;\n       }\n\n\n\n        //21m coins total\n        //reward begins at 50 and is cut in half every reward era (as tokens are mined)\n        function getMiningReward() public constant returns (uint) {\n            //once we get half way thru the coins, only get 25 per block\n\n             //every reward era, the reward amount halves.\n\n             return (50 * 10**uint(decimals) ).div( 2**rewardEra ) ;\n\n        }\n\n        //help debug mining software\n        function getMintDigest(uint256 nonce, bytes32 challenge_digest, bytes32 challenge_number) public view returns (bytes32 digesttest) {\n\n            bytes32 digest = keccak256(challenge_number,msg.sender,nonce);\n\n            return digest;\n\n          }\n\n            //help debug mining software\n          function checkMintSolution(uint256 nonce, bytes32 challenge_digest, bytes32 challenge_number, uint testTarget) public view returns (bool success) {\n\n              bytes32 digest = keccak256(challenge_number,msg.sender,nonce);\n\n              if(uint256(digest) > testTarget) revert();\n\n              return (digest == challenge_digest);\n\n            }\n\n\n\n        // ------------------------------------------------------------------------\n\n        // Total supply\n\n        // ------------------------------------------------------------------------\n\n        function totalSupply() public constant returns (uint) {\n\n            return _totalSupply  - balances[address(0)];\n\n        }\n\n\n\n        // ------------------------------------------------------------------------\n\n        // Get the token balance for account `tokenOwner`\n\n        // ------------------------------------------------------------------------\n\n        function balanceOf(address tokenOwner) public constant returns (uint balance) {\n\n            return balances[tokenOwner];\n\n        }\n\n\n\n        // ------------------------------------------------------------------------\n\n        // Transfer the balance from token owner's account to `to` account\n\n        // - Owner's account must have sufficient balance to transfer\n\n        // - 0 value transfers are allowed\n\n        // ------------------------------------------------------------------------\n\n        function transfer(address to, uint tokens) public returns (bool success) {\n\n            balances[msg.sender] = balances[msg.sender].sub(tokens);\n\n            balances[to] = balances[to].add(tokens);\n\n            Transfer(msg.sender, to, tokens);\n\n            return true;\n\n        }\n\n\n\n        // ------------------------------------------------------------------------\n\n        // Token owner can approve for `spender` to transferFrom(...) `tokens`\n\n        // from the token owner's account\n\n        //\n\n        // https://github.com/ethereum/EIPs/blob/master/EIPS/eip-20-token-standard.md\n\n        // recommends that there are no checks for the approval double-spend attack\n\n        // as this should be implemented in user interfaces\n\n        // ------------------------------------------------------------------------\n\n        function approve(address spender, uint tokens) public returns (bool success) {\n\n            allowed[msg.sender][spender] = tokens;\n\n            Approval(msg.sender, spender, tokens);\n\n            return true;\n\n        }\n\n\n\n        // ------------------------------------------------------------------------\n\n        // Transfer `tokens` from the `from` account to the `to` account\n\n        //\n\n        // The calling account must already have sufficient tokens approve(...)-d\n\n        // for spending from the `from` account and\n\n        // - From account must have sufficient balance to transfer\n\n        // - Spender must have sufficient allowance to transfer\n\n        // - 0 value transfers are allowed\n\n        // ------------------------------------------------------------------------\n\n        function transferFrom(address from, address to, uint tokens) public returns (bool success) {\n\n            balances[from] = balances[from].sub(tokens);\n\n            allowed[from][msg.sender] = allowed[from][msg.sender].sub(tokens);\n\n            balances[to] = balances[to].add(tokens);\n\n            Transfer(from, to, tokens);\n\n            return true;\n\n        }\n\n\n\n        // ------------------------------------------------------------------------\n\n        // Returns the amount of tokens approved by the owner that can be\n\n        // transferred to the spender's account\n\n        // ------------------------------------------------------------------------\n\n        function allowance(address tokenOwner, address spender) public constant returns (uint remaining) {\n\n            return allowed[tokenOwner][spender];\n\n        }\n\n\n\n        // ------------------------------------------------------------------------\n\n        // Token owner can approve for `spender` to transferFrom(...) `tokens`\n\n        // from the token owner's account. The `spender` contract function\n\n        // `receiveApproval(...)` is then executed\n\n        // ------------------------------------------------------------------------\n\n        function approveAndCall(address spender, uint tokens, bytes data) public returns (bool success) {\n\n            allowed[msg.sender][spender] = tokens;\n\n            Approval(msg.sender, spender, tokens);\n\n            ApproveAndCallFallBack(spender).receiveApproval(msg.sender, tokens, this, data);\n\n            return true;\n\n        }\n\n\n\n        // ------------------------------------------------------------------------\n\n        // Don't accept ETH\n\n        // ------------------------------------------------------------------------\n\n        function () public payable {\n\n            revert();\n\n        }\n\n\n\n        // ------------------------------------------------------------------------\n\n        // Owner can transfer out any accidentally sent ERC20 tokens\n\n        // ------------------------------------------------------------------------\n\n        function transferAnyERC20Token(address tokenAddress, uint tokens) public onlyOwner returns (bool success) {\n\n            return EIP20Interface(tokenAddress).transfer(owner, tokens);\n\n        }\n\n    }\n\n\n\n    contract ApproveAndCallFallBack {\n\n        function receiveApproval(address from, uint256 tokens, address token, bytes data) public;\n\n    }\n",
  "sourcePath": "/home/andy/dev/ERC541-Spec/contracts/EIP521.sol",
  "compiler": {
    "name": "solc",
    "version": "0.4.18+commit.9cf6e910.Emscripten.clang"
  },
  "schemaVersion": "1.0.1",
  "updatedAt": "2018-03-20T17:50:33.121Z"
}