{
  "contractName": "EIP541",
  "abi": [
    {
      "constant": true,
      "inputs": [],
      "name": "name",
      "outputs": [
        {
          "name": "",
          "type": "string"
        }
      ],
      "payable": false,
      "stateMutability": "view",
      "type": "function"
    },
    {
      "constant": true,
      "inputs": [],
      "name": "TARGET_DIVISOR",
      "outputs": [
        {
          "name": "",
          "type": "uint256"
        }
      ],
      "payable": false,
      "stateMutability": "view",
      "type": "function"
    },
    {
      "constant": false,
      "inputs": [
        {
          "name": "spender",
          "type": "address"
        },
        {
          "name": "tokens",
          "type": "uint256"
        }
      ],
      "name": "approve",
      "outputs": [
        {
          "name": "success",
          "type": "bool"
        }
      ],
      "payable": false,
      "stateMutability": "nonpayable",
      "type": "function"
    },
    {
      "constant": true,
      "inputs": [],
      "name": "lastRewardEthBlockNumber",
      "outputs": [
        {
          "name": "",
          "type": "uint256"
        }
      ],
      "payable": false,
      "stateMutability": "view",
      "type": "function"
    },
    {
      "constant": true,
      "inputs": [],
      "name": "getMiningDifficulty",
      "outputs": [
        {
          "name": "",
          "type": "uint256"
        }
      ],
      "payable": false,
      "stateMutability": "view",
      "type": "function"
    },
    {
      "constant": false,
      "inputs": [
        {
          "name": "nonce",
          "type": "uint256"
        },
        {
          "name": "challenge_digest",
          "type": "bytes32"
        }
      ],
      "name": "mint",
      "outputs": [
        {
          "name": "success",
          "type": "bool"
        }
      ],
      "payable": false,
      "stateMutability": "nonpayable",
      "type": "function"
    },
    {
      "constant": true,
      "inputs": [],
      "name": "totalSupply",
      "outputs": [
        {
          "name": "",
          "type": "uint256"
        }
      ],
      "payable": false,
      "stateMutability": "view",
      "type": "function"
    },
    {
      "constant": true,
      "inputs": [],
      "name": "MAX_ADJUSTMENT_PERCENT",
      "outputs": [
        {
          "name": "",
          "type": "uint256"
        }
      ],
      "payable": false,
      "stateMutability": "view",
      "type": "function"
    },
    {
      "constant": false,
      "inputs": [
        {
          "name": "from",
          "type": "address"
        },
        {
          "name": "to",
          "type": "address"
        },
        {
          "name": "tokens",
          "type": "uint256"
        }
      ],
      "name": "transferFrom",
      "outputs": [
        {
          "name": "success",
          "type": "bool"
        }
      ],
      "payable": false,
      "stateMutability": "nonpayable",
      "type": "function"
    },
    {
      "constant": true,
      "inputs": [],
      "name": "rewardEra",
      "outputs": [
        {
          "name": "",
          "type": "uint256"
        }
      ],
      "payable": false,
      "stateMutability": "view",
      "type": "function"
    },
    {
      "constant": true,
      "inputs": [],
      "name": "decimals",
      "outputs": [
        {
          "name": "",
          "type": "uint8"
        }
      ],
      "payable": false,
      "stateMutability": "view",
      "type": "function"
    },
    {
      "constant": true,
      "inputs": [],
      "name": "getMiningTarget",
      "outputs": [
        {
          "name": "",
          "type": "uint256"
        }
      ],
      "payable": false,
      "stateMutability": "view",
      "type": "function"
    },
    {
      "constant": true,
      "inputs": [],
      "name": "MINING_RATE_FACTOR",
      "outputs": [
        {
          "name": "",
          "type": "uint256"
        }
      ],
      "payable": false,
      "stateMutability": "view",
      "type": "function"
    },
    {
      "constant": false,
      "inputs": [],
      "name": "_MintedToken",
      "outputs": [],
      "payable": false,
      "stateMutability": "nonpayable",
      "type": "function"
    },
    {
      "constant": true,
      "inputs": [],
      "name": "MAX_REWARD_ERA",
      "outputs": [
        {
          "name": "",
          "type": "uint256"
        }
      ],
      "payable": false,
      "stateMutability": "view",
      "type": "function"
    },
    {
      "constant": true,
      "inputs": [],
      "name": "getMiningReward",
      "outputs": [
        {
          "name": "",
          "type": "uint256"
        }
      ],
      "payable": false,
      "stateMutability": "view",
      "type": "function"
    },
    {
      "constant": true,
      "inputs": [],
      "name": "getChallengeNumber",
      "outputs": [
        {
          "name": "",
          "type": "bytes32"
        }
      ],
      "payable": false,
      "stateMutability": "view",
      "type": "function"
    },
    {
      "constant": true,
      "inputs": [],
      "name": "maxSupplyForEra",
      "outputs": [
        {
          "name": "",
          "type": "uint256"
        }
      ],
      "payable": false,
      "stateMutability": "view",
      "type": "function"
    },
    {
      "constant": true,
      "inputs": [],
      "name": "BASE_MINING_REWARD",
      "outputs": [
        {
          "name": "",
          "type": "uint256"
        }
      ],
      "payable": false,
      "stateMutability": "view",
      "type": "function"
    },
    {
      "constant": true,
      "inputs": [],
      "name": "tokensMinted",
      "outputs": [
        {
          "name": "",
          "type": "uint256"
        }
      ],
      "payable": false,
      "stateMutability": "view",
      "type": "function"
    },
    {
      "constant": true,
      "inputs": [],
      "name": "lastRewardTo",
      "outputs": [
        {
          "name": "",
          "type": "address"
        }
      ],
      "payable": false,
      "stateMutability": "view",
      "type": "function"
    },
    {
      "constant": true,
      "inputs": [
        {
          "name": "tokenOwner",
          "type": "address"
        }
      ],
      "name": "balanceOf",
      "outputs": [
        {
          "name": "balance",
          "type": "uint256"
        }
      ],
      "payable": false,
      "stateMutability": "view",
      "type": "function"
    },
    {
      "constant": false,
      "inputs": [],
      "name": "acceptOwnership",
      "outputs": [],
      "payable": false,
      "stateMutability": "nonpayable",
      "type": "function"
    },
    {
      "constant": true,
      "inputs": [
        {
          "name": "nonce",
          "type": "uint256"
        },
        {
          "name": "challenge_digest",
          "type": "bytes32"
        },
        {
          "name": "challenge_number",
          "type": "bytes32"
        },
        {
          "name": "testTarget",
          "type": "uint256"
        }
      ],
      "name": "checkMintSolution",
      "outputs": [
        {
          "name": "success",
          "type": "bool"
        }
      ],
      "payable": false,
      "stateMutability": "view",
      "type": "function"
    },
    {
      "constant": true,
      "inputs": [],
      "name": "epochCount",
      "outputs": [
        {
          "name": "",
          "type": "uint256"
        }
      ],
      "payable": false,
      "stateMutability": "view",
      "type": "function"
    },
    {
      "constant": true,
      "inputs": [],
      "name": "_MAXIMUM_TARGET",
      "outputs": [
        {
          "name": "",
          "type": "uint256"
        }
      ],
      "payable": false,
      "stateMutability": "view",
      "type": "function"
    },
    {
      "constant": true,
      "inputs": [],
      "name": "miningTarget",
      "outputs": [
        {
          "name": "",
          "type": "uint256"
        }
      ],
      "payable": false,
      "stateMutability": "view",
      "type": "function"
    },
    {
      "constant": true,
      "inputs": [],
      "name": "challengeNumber",
      "outputs": [
        {
          "name": "",
          "type": "bytes32"
        }
      ],
      "payable": false,
      "stateMutability": "view",
      "type": "function"
    },
    {
      "constant": true,
      "inputs": [],
      "name": "owner",
      "outputs": [
        {
          "name": "",
          "type": "address"
        }
      ],
      "payable": false,
      "stateMutability": "view",
      "type": "function"
    },
    {
      "constant": true,
      "inputs": [],
      "name": "symbol",
      "outputs": [
        {
          "name": "",
          "type": "string"
        }
      ],
      "payable": false,
      "stateMutability": "view",
      "type": "function"
    },
    {
      "constant": true,
      "inputs": [
        {
          "name": "nonce",
          "type": "uint256"
        },
        {
          "name": "challenge_digest",
          "type": "bytes32"
        },
        {
          "name": "challenge_number",
          "type": "bytes32"
        }
      ],
      "name": "getMintDigest",
      "outputs": [
        {
          "name": "digesttest",
          "type": "bytes32"
        }
      ],
      "payable": false,
      "stateMutability": "view",
      "type": "function"
    },
    {
      "constant": false,
      "inputs": [
        {
          "name": "to",
          "type": "address"
        },
        {
          "name": "tokens",
          "type": "uint256"
        }
      ],
      "name": "transfer",
      "outputs": [
        {
          "name": "success",
          "type": "bool"
        }
      ],
      "payable": false,
      "stateMutability": "nonpayable",
      "type": "function"
    },
    {
      "constant": true,
      "inputs": [],
      "name": "QUOTIENT_LIMIT",
      "outputs": [
        {
          "name": "",
          "type": "uint256"
        }
      ],
      "payable": false,
      "stateMutability": "view",
      "type": "function"
    },
    {
      "constant": true,
      "inputs": [],
      "name": "_BLOCKS_PER_READJUSTMENT",
      "outputs": [
        {
          "name": "",
          "type": "uint256"
        }
      ],
      "payable": false,
      "stateMutability": "view",
      "type": "function"
    },
    {
      "constant": true,
      "inputs": [],
      "name": "lastRewardAmount",
      "outputs": [
        {
          "name": "",
          "type": "uint256"
        }
      ],
      "payable": false,
      "stateMutability": "view",
      "type": "function"
    },
    {
      "constant": false,
      "inputs": [
        {
          "name": "spender",
          "type": "address"
        },
        {
          "name": "tokens",
          "type": "uint256"
        },
        {
          "name": "data",
          "type": "bytes"
        }
      ],
      "name": "approveAndCall",
      "outputs": [
        {
          "name": "success",
          "type": "bool"
        }
      ],
      "payable": false,
      "stateMutability": "nonpayable",
      "type": "function"
    },
    {
      "constant": true,
      "inputs": [],
      "name": "latestDifficultyPeriodStarted",
      "outputs": [
        {
          "name": "",
          "type": "uint256"
        }
      ],
      "payable": false,
      "stateMutability": "view",
      "type": "function"
    },
    {
      "constant": true,
      "inputs": [],
      "name": "newOwner",
      "outputs": [
        {
          "name": "",
          "type": "address"
        }
      ],
      "payable": false,
      "stateMutability": "view",
      "type": "function"
    },
    {
      "constant": false,
      "inputs": [
        {
          "name": "tokenAddress",
          "type": "address"
        },
        {
          "name": "tokens",
          "type": "uint256"
        }
      ],
      "name": "transferAnyERC20Token",
      "outputs": [
        {
          "name": "success",
          "type": "bool"
        }
      ],
      "payable": false,
      "stateMutability": "nonpayable",
      "type": "function"
    },
    {
      "constant": true,
      "inputs": [],
      "name": "_MINIMUM_TARGET",
      "outputs": [
        {
          "name": "",
          "type": "uint256"
        }
      ],
      "payable": false,
      "stateMutability": "view",
      "type": "function"
    },
    {
      "constant": true,
      "inputs": [
        {
          "name": "tokenOwner",
          "type": "address"
        },
        {
          "name": "spender",
          "type": "address"
        }
      ],
      "name": "allowance",
      "outputs": [
        {
          "name": "remaining",
          "type": "uint256"
        }
      ],
      "payable": false,
      "stateMutability": "view",
      "type": "function"
    },
    {
      "constant": false,
      "inputs": [
        {
          "name": "_newOwner",
          "type": "address"
        }
      ],
      "name": "transferOwnership",
      "outputs": [],
      "payable": false,
      "stateMutability": "nonpayable",
      "type": "function"
    },
    {
      "payable": true,
      "stateMutability": "payable",
      "type": "fallback"
    },
    {
      "anonymous": false,
      "inputs": [
        {
          "indexed": true,
          "name": "from",
          "type": "address"
        },
        {
          "indexed": false,
          "name": "reward_amount",
          "type": "uint256"
        },
        {
          "indexed": false,
          "name": "epochCount",
          "type": "uint256"
        },
        {
          "indexed": false,
          "name": "newChallengeNumber",
          "type": "bytes32"
        }
      ],
      "name": "Mint",
      "type": "event"
    },
    {
      "anonymous": false,
      "inputs": [
        {
          "indexed": true,
          "name": "_from",
          "type": "address"
        },
        {
          "indexed": true,
          "name": "_to",
          "type": "address"
        }
      ],
      "name": "OwnershipTransferred",
      "type": "event"
    },
    {
      "anonymous": false,
      "inputs": [
        {
          "indexed": true,
          "name": "_from",
          "type": "address"
        },
        {
          "indexed": true,
          "name": "_to",
          "type": "address"
        },
        {
          "indexed": false,
          "name": "_value",
          "type": "uint256"
        }
      ],
      "name": "Transfer",
      "type": "event"
    },
    {
      "anonymous": false,
      "inputs": [
        {
          "indexed": true,
          "name": "_owner",
          "type": "address"
        },
        {
          "indexed": true,
          "name": "_spender",
          "type": "address"
        },
        {
          "indexed": false,
          "name": "_value",
          "type": "uint256"
        }
      ],
      "name": "Approval",
      "type": "event"
    }
  ],
  "bytecode": "0x60606040526032600955610400600a5562010000600b557d040000000000000000000000000000000000000000000000000000000000600c556027601155603c60125560646016556107d060175561007060026017546100d46401000000000261205f179091906401000000009004565b6018556000601960006101000a81548160ff02191690831515021790555033600160006101000a81548173ffffffffffffffffffffffffffffffffffffffff021916908373ffffffffffffffffffffffffffffffffffffffff1602179055506100f8565b600080821115156100e457600080fd5b81838115156100ef57fe5b04905092915050565b61242380620001086000396000f300606060405260043610610204576000357c0100000000000000000000000000000000000000000000000000000000900463ffffffff16806306fdde0314610209578063095b6d4c14610297578063095ea7b3146102c0578063163aa00d1461031a57806317da485f146103435780631801fbe51461036c57806318160ddd146103b45780631beddf1c146103dd57806323b872dd146104065780632d38bf7a1461047f578063313ce567146104a857806332e99708146104d75780633426e5f51461050057806336d0bd411461052957806346eed3f31461053e578063490203a7146105675780634ef37628146105905780634fa972e1146105c1578063519defd6146105ea5780636de9f32b146106135780636fd396d61461063c57806370a082311461069157806379ba5097146106de57806381269a56146106f3578063829965cc1461075157806387a2a9d61461077a5780638a769d35146107a35780638ae0368b146107cc5780638da5cb5b146107fd57806395d89b411461085257806397566aa0146108e0578063a9059cbb14610939578063ad1dfe3b14610993578063b5ade81b146109bc578063bafedcaa146109e5578063cae9ca5114610a0e578063cb9ae70714610aab578063d4ee1d9014610ad4578063dc39d06d14610b29578063dc6e9cf914610b83578063dd62ed3e14610bac578063f2fde38b14610c18575b600080fd5b341561021457600080fd5b61021c610c51565b6040518080602001828103825283818151815260200191508051906020019080838360005b8381101561025c578082015181840152602081019050610241565b50505050905090810190601f1680156102895780820380516001836020036101000a031916815260200191505b509250505060405180910390f35b34156102a257600080fd5b6102aa610cef565b6040518082815260200191505060405180910390f35b34156102cb57600080fd5b610300600480803573ffffffffffffffffffffffffffffffffffffffff16906020019091908035906020019091905050610cf5565b604051808215151515815260200191505060405180910390f35b341561032557600080fd5b61032d610de7565b6040518082815260200191505060405180910390f35b341561034e57600080fd5b610356610ded565b6040518082815260200191505060405180910390f35b341561037757600080fd5b61039a600480803590602001909190803560001916906020019091905050610e0b565b604051808215151515815260200191505060405180910390f35b34156103bf57600080fd5b6103c761109b565b6040518082815260200191505060405180910390f35b34156103e857600080fd5b6103f06110e6565b6040518082815260200191505060405180910390f35b341561041157600080fd5b610465600480803573ffffffffffffffffffffffffffffffffffffffff1690602001909190803573ffffffffffffffffffffffffffffffffffffffff169060200190919080359060200190919050506110ec565b604051808215151515815260200191505060405180910390f35b341561048a57600080fd5b610492611397565b6040518082815260200191505060405180910390f35b34156104b357600080fd5b6104bb61139d565b604051808260ff1660ff16815260200191505060405180910390f35b34156104e257600080fd5b6104ea6113b0565b6040518082815260200191505060405180910390f35b341561050b57600080fd5b6105136113ba565b6040518082815260200191505060405180910390f35b341561053457600080fd5b61053c6113c0565b005b341561054957600080fd5b61055161156d565b6040518082815260200191505060405180910390f35b341561057257600080fd5b61057a611573565b6040518082815260200191505060405180910390f35b341561059b57600080fd5b6105a36115ab565b60405180826000191660001916815260200191505060405180910390f35b34156105cc57600080fd5b6105d46115b5565b6040518082815260200191505060405180910390f35b34156105f557600080fd5b6105fd6115bb565b6040518082815260200191505060405180910390f35b341561061e57600080fd5b6106266115c1565b6040518082815260200191505060405180910390f35b341561064757600080fd5b61064f6115c7565b604051808273ffffffffffffffffffffffffffffffffffffffff1673ffffffffffffffffffffffffffffffffffffffff16815260200191505060405180910390f35b341561069c57600080fd5b6106c8600480803573ffffffffffffffffffffffffffffffffffffffff169060200190919050506115ed565b6040518082815260200191505060405180910390f35b34156106e957600080fd5b6106f1611636565b005b34156106fe57600080fd5b610737600480803590602001909190803560001916906020019091908035600019169060200190919080359060200190919050506117d7565b604051808215151515815260200191505060405180910390f35b341561075c57600080fd5b61076461186c565b6040518082815260200191505060405180910390f35b341561078557600080fd5b61078d611872565b6040518082815260200191505060405180910390f35b34156107ae57600080fd5b6107b6611878565b6040518082815260200191505060405180910390f35b34156107d757600080fd5b6107df61187e565b60405180826000191660001916815260200191505060405180910390f35b341561080857600080fd5b610810611884565b604051808273ffffffffffffffffffffffffffffffffffffffff1673ffffffffffffffffffffffffffffffffffffffff16815260200191505060405180910390f35b341561085d57600080fd5b6108656118aa565b6040518080602001828103825283818151815260200191508051906020019080838360005b838110156108a557808201518184015260208101905061088a565b50505050905090810190601f1680156108d25780820380516001836020036101000a031916815260200191505b509250505060405180910390f35b34156108eb57600080fd5b61091b60048080359060200190919080356000191690602001909190803560001916906020019091905050611948565b60405180826000191660001916815260200191505060405180910390f35b341561094457600080fd5b610979600480803573ffffffffffffffffffffffffffffffffffffffff169060200190919080359060200190919050506119c1565b604051808215151515815260200191505060405180910390f35b341561099e57600080fd5b6109a6611b5c565b6040518082815260200191505060405180910390f35b34156109c757600080fd5b6109cf611b62565b6040518082815260200191505060405180910390f35b34156109f057600080fd5b6109f8611b68565b6040518082815260200191505060405180910390f35b3415610a1957600080fd5b610a91600480803573ffffffffffffffffffffffffffffffffffffffff1690602001909190803590602001909190803590602001908201803590602001908080601f01602080910402602001604051908101604052809392919081815260200183838082843782019150505050505091905050611b6e565b604051808215151515815260200191505060405180910390f35b3415610ab657600080fd5b610abe611db8565b6040518082815260200191505060405180910390f35b3415610adf57600080fd5b610ae7611dbe565b604051808273ffffffffffffffffffffffffffffffffffffffff1673ffffffffffffffffffffffffffffffffffffffff16815260200191505060405180910390f35b3415610b3457600080fd5b610b69600480803573ffffffffffffffffffffffffffffffffffffffff16906020019091908035906020019091905050611de4565b604051808215151515815260200191505060405180910390f35b3415610b8e57600080fd5b610b96611f32565b6040518082815260200191505060405180910390f35b3415610bb757600080fd5b610c02600480803573ffffffffffffffffffffffffffffffffffffffff1690602001909190803573ffffffffffffffffffffffffffffffffffffffff16906020019091905050611f38565b6040518082815260200191505060405180910390f35b3415610c2357600080fd5b610c4f600480803573ffffffffffffffffffffffffffffffffffffffff16906020019091905050611fbf565b005b60048054600181600116156101000203166002900480601f016020809104026020016040519081016040528092919081815260200182805460018160011615610100020316600290048015610ce75780601f10610cbc57610100808354040283529160200191610ce7565b820191906000526020600020905b815481529060010190602001808311610cca57829003601f168201915b505050505081565b60175481565b600081601d60003373ffffffffffffffffffffffffffffffffffffffff1673ffffffffffffffffffffffffffffffffffffffff16815260200190815260200160002060008573ffffffffffffffffffffffffffffffffffffffff1673ffffffffffffffffffffffffffffffffffffffff168152602001908152602001600020819055508273ffffffffffffffffffffffffffffffffffffffff163373ffffffffffffffffffffffffffffffffffffffff167f8c5be1e5ebec7d5bd14f71427d1e84f3dd0314c0f7b2291e5b200ac8c7c3b925846040518082815260200191505060405180910390a36001905092915050565b60155481565b6000610e06600d54600c5461205f90919063ffffffff16565b905090565b600080600080600e5433876040518084600019166000191681526020018373ffffffffffffffffffffffffffffffffffffffff1673ffffffffffffffffffffffffffffffffffffffff166c0100000000000000000000000002815260140182815260200193505050506040518091039020925084600019168360001916141515610e9457600080fd5b600d5483600190041115610ea757600080fd5b601a6000600e546000191660001916815260200190815260200160002054915082601a6000600e5460001916600019168152602001908152602001600020816000191690555060006001028260001916141515610f0357600080fd5b610f0b611573565b9050610f5f81601c60003373ffffffffffffffffffffffffffffffffffffffff1673ffffffffffffffffffffffffffffffffffffffff1681526020019081526020016000205461208390919063ffffffff16565b601c60003373ffffffffffffffffffffffffffffffffffffffff1673ffffffffffffffffffffffffffffffffffffffff16815260200190815260200160002081905550610fb781601b5461208390919063ffffffff16565b601b81905550601054601b5411151515610fcd57fe5b33601360006101000a81548173ffffffffffffffffffffffffffffffffffffffff021916908373ffffffffffffffffffffffffffffffffffffffff160217905550806014819055504360158190555061102461209f565b3373ffffffffffffffffffffffffffffffffffffffff167fcf6fbb9dcea7d07263ab4f5c3a92f53af33dffc421d9d121e1c74b307e68189d82600854600e54604051808481526020018381526020018260001916600019168152602001935050505060405180910390a26001935050505092915050565b6000601c60008073ffffffffffffffffffffffffffffffffffffffff1673ffffffffffffffffffffffffffffffffffffffff1681526020019081526020016000205460065403905090565b60165481565b600061114082601c60008773ffffffffffffffffffffffffffffffffffffffff1673ffffffffffffffffffffffffffffffffffffffff1681526020019081526020016000205461215590919063ffffffff16565b601c60008673ffffffffffffffffffffffffffffffffffffffff1673ffffffffffffffffffffffffffffffffffffffff1681526020019081526020016000208190555061121282601d60008773ffffffffffffffffffffffffffffffffffffffff1673ffffffffffffffffffffffffffffffffffffffff16815260200190815260200160002060003373ffffffffffffffffffffffffffffffffffffffff1673ffffffffffffffffffffffffffffffffffffffff1681526020019081526020016000205461215590919063ffffffff16565b601d60008673ffffffffffffffffffffffffffffffffffffffff1673ffffffffffffffffffffffffffffffffffffffff16815260200190815260200160002060003373ffffffffffffffffffffffffffffffffffffffff1673ffffffffffffffffffffffffffffffffffffffff168152602001908152602001600020819055506112e482601c60008673ffffffffffffffffffffffffffffffffffffffff1673ffffffffffffffffffffffffffffffffffffffff1681526020019081526020016000205461208390919063ffffffff16565b601c60008573ffffffffffffffffffffffffffffffffffffffff1673ffffffffffffffffffffffffffffffffffffffff168152602001908152602001600020819055508273ffffffffffffffffffffffffffffffffffffffff168473ffffffffffffffffffffffffffffffffffffffff167fddf252ad1be2c89b69c2b068fc378daa952ba7f163c4a11628f55a4df523b3ef846040518082815260200191505060405180910390a3600190509392505050565b600f5481565b600560009054906101000a900460ff1681565b6000600d54905090565b60125481565b600160009054906101000a900473ffffffffffffffffffffffffffffffffffffffff1673ffffffffffffffffffffffffffffffffffffffff163373ffffffffffffffffffffffffffffffffffffffff1614151561141c57600080fd5b6040805190810160405280600381526020017f3f3f3f000000000000000000000000000000000000000000000000000000000081525060039080519060200190611467929190612352565b506040805190810160405280600381526020017f3f3f3f0000000000000000000000000000000000000000000000000000000000815250600490805190602001906114b3929190612352565b506008600560006101000a81548160ff021916908360ff160217905550600560009054906101000a900460ff1660ff16600a0a6301406f4002600681905550601960009054906101000a900460ff161561150c57600080fd5b6001601960006101000a81548160ff0219169083151502179055506000601b819055506000600f8190555061154d600260065461205f90919063ffffffff16565b601081905550600c54600d819055504360078190555061156b61209f565b565b60115481565b60006115a6600f5460020a600560009054906101000a900460ff1660ff16600a0a6009540261205f90919063ffffffff16565b905090565b6000600e54905090565b60105481565b60095481565b601b5481565b601360009054906101000a900473ffffffffffffffffffffffffffffffffffffffff1681565b6000601c60008373ffffffffffffffffffffffffffffffffffffffff1673ffffffffffffffffffffffffffffffffffffffff168152602001908152602001600020549050919050565b600260009054906101000a900473ffffffffffffffffffffffffffffffffffffffff1673ffffffffffffffffffffffffffffffffffffffff163373ffffffffffffffffffffffffffffffffffffffff1614151561169257600080fd5b600260009054906101000a900473ffffffffffffffffffffffffffffffffffffffff1673ffffffffffffffffffffffffffffffffffffffff16600160009054906101000a900473ffffffffffffffffffffffffffffffffffffffff1673ffffffffffffffffffffffffffffffffffffffff167f8be0079c531659141344cd1fd0a4f28419497f9722a3daafe3b4186f6b6457e060405160405180910390a3600260009054906101000a900473ffffffffffffffffffffffffffffffffffffffff16600160006101000a81548173ffffffffffffffffffffffffffffffffffffffff021916908373ffffffffffffffffffffffffffffffffffffffff1602179055506000600260006101000a81548173ffffffffffffffffffffffffffffffffffffffff021916908373ffffffffffffffffffffffffffffffffffffffff160217905550565b6000808333876040518084600019166000191681526020018373ffffffffffffffffffffffffffffffffffffffff1673ffffffffffffffffffffffffffffffffffffffff166c01000000000000000000000000028152601401828152602001935050505060405180910390209050828160019004111561185657600080fd5b8460001916816000191614915050949350505050565b60085481565b600c5481565b600d5481565b600e5481565b600160009054906101000a900473ffffffffffffffffffffffffffffffffffffffff1681565b60038054600181600116156101000203166002900480601f0160208091040260200160405190810160405280929190818152602001828054600181600116156101000203166002900480156119405780601f1061191557610100808354040283529160200191611940565b820191906000526020600020905b81548152906001019060200180831161192357829003601f168201915b505050505081565b6000808233866040518084600019166000191681526020018373ffffffffffffffffffffffffffffffffffffffff1673ffffffffffffffffffffffffffffffffffffffff166c01000000000000000000000000028152601401828152602001935050505060405180910390209050809150509392505050565b6000611a1582601c60003373ffffffffffffffffffffffffffffffffffffffff1673ffffffffffffffffffffffffffffffffffffffff1681526020019081526020016000205461215590919063ffffffff16565b601c60003373ffffffffffffffffffffffffffffffffffffffff1673ffffffffffffffffffffffffffffffffffffffff16815260200190815260200160002081905550611aaa82601c60008673ffffffffffffffffffffffffffffffffffffffff1673ffffffffffffffffffffffffffffffffffffffff1681526020019081526020016000205461208390919063ffffffff16565b601c60008573ffffffffffffffffffffffffffffffffffffffff1673ffffffffffffffffffffffffffffffffffffffff168152602001908152602001600020819055508273ffffffffffffffffffffffffffffffffffffffff163373ffffffffffffffffffffffffffffffffffffffff167fddf252ad1be2c89b69c2b068fc378daa952ba7f163c4a11628f55a4df523b3ef846040518082815260200191505060405180910390a36001905092915050565b60185481565b600a5481565b60145481565b600082601d60003373ffffffffffffffffffffffffffffffffffffffff1673ffffffffffffffffffffffffffffffffffffffff16815260200190815260200160002060008673ffffffffffffffffffffffffffffffffffffffff1673ffffffffffffffffffffffffffffffffffffffff168152602001908152602001600020819055508373ffffffffffffffffffffffffffffffffffffffff163373ffffffffffffffffffffffffffffffffffffffff167f8c5be1e5ebec7d5bd14f71427d1e84f3dd0314c0f7b2291e5b200ac8c7c3b925856040518082815260200191505060405180910390a38373ffffffffffffffffffffffffffffffffffffffff16638f4ffcb1338530866040518563ffffffff167c0100000000000000000000000000000000000000000000000000000000028152600401808573ffffffffffffffffffffffffffffffffffffffff1673ffffffffffffffffffffffffffffffffffffffff1681526020018481526020018373ffffffffffffffffffffffffffffffffffffffff1673ffffffffffffffffffffffffffffffffffffffff16815260200180602001828103825283818151815260200191508051906020019080838360005b83811015611d4b578082015181840152602081019050611d30565b50505050905090810190601f168015611d785780820380516001836020036101000a031916815260200191505b5095505050505050600060405180830381600087803b1515611d9957600080fd5b6102c65a03f11515611daa57600080fd5b505050600190509392505050565b60075481565b600260009054906101000a900473ffffffffffffffffffffffffffffffffffffffff1681565b6000600160009054906101000a900473ffffffffffffffffffffffffffffffffffffffff1673ffffffffffffffffffffffffffffffffffffffff163373ffffffffffffffffffffffffffffffffffffffff16141515611e4257600080fd5b8273ffffffffffffffffffffffffffffffffffffffff1663a9059cbb600160009054906101000a900473ffffffffffffffffffffffffffffffffffffffff16846000604051602001526040518363ffffffff167c0100000000000000000000000000000000000000000000000000000000028152600401808373ffffffffffffffffffffffffffffffffffffffff1673ffffffffffffffffffffffffffffffffffffffff16815260200182815260200192505050602060405180830381600087803b1515611f0f57600080fd5b6102c65a03f11515611f2057600080fd5b50505060405180519050905092915050565b600b5481565b6000601d60008473ffffffffffffffffffffffffffffffffffffffff1673ffffffffffffffffffffffffffffffffffffffff16815260200190815260200160002060008373ffffffffffffffffffffffffffffffffffffffff1673ffffffffffffffffffffffffffffffffffffffff16815260200190815260200160002054905092915050565b600160009054906101000a900473ffffffffffffffffffffffffffffffffffffffff1673ffffffffffffffffffffffffffffffffffffffff163373ffffffffffffffffffffffffffffffffffffffff1614151561201b57600080fd5b80600260006101000a81548173ffffffffffffffffffffffffffffffffffffffff021916908373ffffffffffffffffffffffffffffffffffffffff16021790555050565b6000808211151561206f57600080fd5b818381151561207a57fe5b04905092915050565b6000818301905082811015151561209957600080fd5b92915050565b6010546120be6120ad611573565b601b5461208390919063ffffffff16565b1180156120ce5750601154600f54105b156120e0576001600f5401600f819055505b6120fd6001600f540160020a60065461205f90919063ffffffff16565b6006540360108190555061211d600160085461208390919063ffffffff16565b6008819055506000600a5460085481151561213457fe5b06141561214457612143612171565b5b6001430340600e8160001916905550565b600082821115151561216657600080fd5b818303905092915050565b600080600080600080600060075443039650600a5495506012548602945084871015612232576121be876121b06016548861230590919063ffffffff16565b61205f90919063ffffffff16565b93506121e86018546121da60648761215590919063ffffffff16565b61233690919063ffffffff16565b925061222761221684612208601754600d5461205f90919063ffffffff16565b61230590919063ffffffff16565b600d5461215590919063ffffffff16565b600d819055506122c9565b6122598561224b6016548a61230590919063ffffffff16565b61205f90919063ffffffff16565b915061228360185461227560648561215590919063ffffffff16565b61233690919063ffffffff16565b90506122c26122b1826122a3601754600d5461205f90919063ffffffff16565b61230590919063ffffffff16565b600d5461208390919063ffffffff16565b600d819055505b43600781905550600b54600d5410156122e657600b54600d819055505b600c54600d5411156122fc57600c54600d819055505b50505050505050565b600081830290506000831480612325575081838281151561232257fe5b04145b151561233057600080fd5b92915050565b6000818311156123485781905061234c565b8290505b92915050565b828054600181600116156101000203166002900490600052602060002090601f016020900481019282601f1061239357805160ff19168380011785556123c1565b828001600101855582156123c1579182015b828111156123c05782518255916020019190600101906123a5565b5b5090506123ce91906123d2565b5090565b6123f491905b808211156123f05760008160009055506001016123d8565b5090565b905600a165627a7a7230582069449802b9334bce8410f96c7f8ecb56eaa917ec4120d9d2bb6f2ee0c66808450029",
  "source": "/*\nImplements EIP541 token standard: https://github.com/ethereum/EIPs/blob/master/EIPS/eip-20.md\n.*/\n\n\npragma solidity ^0.4.18;\n\nimport \"./EIP20Interface.sol\";\n\nimport \"./EIP541Interface.sol\";\n\nimport \"./SafeMath.sol\";\n\nimport \"./ExtendedMath.sol\";\n\nimport \"./Owned.sol\";\n\n\ncontract EIP541 is EIP541Interface, Owned {\n\n    using SafeMath for uint;\n    using ExtendedMath for uint;\n\n\n        string public symbol;\n\n        string public  name;\n\n        uint8 public decimals;\n\n        uint256 public totalSupply;\n\n\n\n         uint public latestDifficultyPeriodStarted;\n\n\n\n        uint public epochCount;//number of 'blocks' mined\n\n        uint public BASE_MINING_REWARD = 50;\n\n        uint public _BLOCKS_PER_READJUSTMENT = 1024;\n\n\n        uint public  _MINIMUM_TARGET = 2**16;\n\n\n        //a big number is easier ; just find a solution that is smaller\n        //uint public  _MAXIMUM_TARGET = 2**224;  bitcoin uses 224\n        uint public  _MAXIMUM_TARGET = 2**234;\n\n\n\n        uint public miningTarget;\n\n        bytes32 public challengeNumber;   //generate a new one when a new reward is minted\n\n\n\n        uint public rewardEra;\n        uint public maxSupplyForEra;\n\n        uint public MAX_REWARD_ERA = 39;\n        uint public MINING_RATE_FACTOR = 60; //mint the token 60 times less often than ether\n\n        address public lastRewardTo;\n        uint public lastRewardAmount;\n        uint public lastRewardEthBlockNumber;\n\n\n        //difficulty adjustment parameters- be careful modifying these\n        uint public MAX_ADJUSTMENT_PERCENT = 100;\n        uint public TARGET_DIVISOR = 2000;\n        uint public QUOTIENT_LIMIT = TARGET_DIVISOR.div(2);\n\n\n\n        bool locked = false;\n\n        mapping(bytes32 => bytes32) solutionForChallenge;\n\n        uint public tokensMinted;\n\n        mapping(address => uint) balances;\n\n\n        mapping(address => mapping(address => uint)) allowed;\n\n\n        event Mint(address indexed from, uint reward_amount, uint epochCount, bytes32 newChallengeNumber);\n\n        // ------------------------------------------------------------------------\n\n        // Constructor\n\n        // ------------------------------------------------------------------------\n\n        function _MintedToken() public onlyOwner{\n\n\n\n            symbol = \"???\";\n\n            name = \"???\";\n\n            decimals = 8;\n\n            totalSupply = 21000000 * 10**uint(decimals);\n\n\n\n\n\n\n            // -- do not change lines below --\n            if(locked) revert();\n            locked = true;\n\n            tokensMinted = 0;\n\n            rewardEra = 0;\n            maxSupplyForEra = totalSupply.div(2);\n\n            miningTarget = _MAXIMUM_TARGET;\n\n            latestDifficultyPeriodStarted = block.number;\n\n            _startNewMiningEpoch();\n\n\n            //The owner gets nothing! You must mine this ERC20 token\n            //balances[owner] = totalSupply;\n            //Transfer(address(0), owner, totalSupply);\n\n        }\n\n\n\n\n            function mint(uint256 nonce, bytes32 challenge_digest) public returns (bool success) {\n\n\n                //the PoW must contain work that includes a recent ethereum block hash (challenge number) and the msg.sender's address to prevent MITM attacks\n                bytes32 digest =  keccak256(challengeNumber, msg.sender, nonce );\n\n                //the challenge digest must match the expected\n                if (digest != challenge_digest) revert();\n\n                //the digest must be smaller than the target\n                if(uint256(digest) > miningTarget) revert();\n\n\n                //only allow one reward for each challenge\n                 bytes32 solution = solutionForChallenge[challengeNumber];\n                 solutionForChallenge[challengeNumber] = digest;\n                 if(solution != 0x0) revert();  //prevent the same answer from awarding twice\n\n\n                uint reward_amount = getMiningReward();\n\n                balances[msg.sender] = balances[msg.sender].add(reward_amount);\n\n                tokensMinted = tokensMinted.add(reward_amount);\n\n\n                //Cannot mint more tokens than there are\n                assert(tokensMinted <= maxSupplyForEra);\n\n                //set readonly diagnostics data\n                lastRewardTo = msg.sender;\n                lastRewardAmount = reward_amount;\n                lastRewardEthBlockNumber = block.number;\n\n\n                 _startNewMiningEpoch();\n\n                  Mint(msg.sender, reward_amount, epochCount, challengeNumber );\n\n               return true;\n\n            }\n\n\n\n        //DO NOT manually edit this method unless you know EXACTLY what you are doing\n        function _startNewMiningEpoch() internal {\n\n          //if max supply for the era will be exceeded next reward round then enter the new era before that happens\n\n          //40 is the final reward era, almost all tokens minted\n          //once the final era is reached, more tokens will not be given out because the assert function\n          if( tokensMinted.add(getMiningReward()) > maxSupplyForEra && rewardEra < MAX_REWARD_ERA)\n          {\n            rewardEra = rewardEra + 1;\n          }\n\n          //set the next minted supply at which the era will change\n          // total supply is 2100000000000000  because of 8 decimal places\n          maxSupplyForEra = totalSupply - totalSupply.div( 2**(rewardEra + 1));\n\n          epochCount = epochCount.add(1);\n\n          //every so often, readjust difficulty. Dont readjust when deploying\n          if(epochCount % _BLOCKS_PER_READJUSTMENT == 0)\n          {\n            _reAdjustDifficulty();\n          }\n\n\n          //make the latest ethereum block hash a part of the next challenge for PoW to prevent pre-mining future blocks\n          //do this last since this is a protection mechanism in the mint() function\n          challengeNumber = block.blockhash(block.number - 1);\n\n\n        }\n\n\n\n\n\n        //DO NOT manually edit this method unless you know EXACTLY what you are doing\n        function _reAdjustDifficulty() internal {\n\n\n            uint ethBlocksSinceLastDifficultyPeriod = block.number - latestDifficultyPeriodStarted;\n            //assume 360 ethereum blocks per hour\n\n            //we want miners to spend 10 minutes to mine each 'block', about 60 ethereum blocks = one 0xbitcoin epoch\n            uint epochsMined = _BLOCKS_PER_READJUSTMENT;\n\n            uint targetEthBlocksPerDiffPeriod = epochsMined * MINING_RATE_FACTOR;\n\n\n\n\n            //if there were less eth blocks passed in time than expected\n            if( ethBlocksSinceLastDifficultyPeriod < targetEthBlocksPerDiffPeriod )\n            {\n              uint excess_block_pct = (targetEthBlocksPerDiffPeriod.mul(MAX_ADJUSTMENT_PERCENT)).div( ethBlocksSinceLastDifficultyPeriod );\n\n              uint excess_block_pct_extra = excess_block_pct.sub(100).limitLessThan(QUOTIENT_LIMIT);\n              // If there were 5% more blocks mined than expected then this is 5.  If there were 100% more blocks mined than expected then this is 100.\n\n              //make it harder\n              miningTarget = miningTarget.sub(miningTarget.div(TARGET_DIVISOR).mul(excess_block_pct_extra));   //by up to 50 %\n            }else{\n              uint shortage_block_pct = (ethBlocksSinceLastDifficultyPeriod.mul(MAX_ADJUSTMENT_PERCENT)).div( targetEthBlocksPerDiffPeriod );\n\n              uint shortage_block_pct_extra = shortage_block_pct.sub(100).limitLessThan(QUOTIENT_LIMIT); //always between 0 and 1000\n\n              //make it easier\n              miningTarget = miningTarget.add(miningTarget.div(TARGET_DIVISOR).mul(shortage_block_pct_extra));   //by up to 50 %\n            }\n\n\n\n            latestDifficultyPeriodStarted = block.number;\n\n            if(miningTarget < _MINIMUM_TARGET) //very difficult\n            {\n              miningTarget = _MINIMUM_TARGET;\n            }\n\n            if(miningTarget > _MAXIMUM_TARGET) //very easy\n            {\n              miningTarget = _MAXIMUM_TARGET;\n            }\n        }\n\n\n        //this is a recent ethereum block hash, used to prevent pre-mining future blocks\n        function getChallengeNumber() public constant returns (bytes32) {\n            return challengeNumber;\n        }\n\n        //the number of zeroes the digest of the PoW solution requires.  Auto adjusts\n         function getMiningDifficulty() public constant returns (uint) {\n            return _MAXIMUM_TARGET.div(miningTarget);\n        }\n\n        function getMiningTarget() public constant returns (uint) {\n           return miningTarget;\n       }\n\n\n\n        //21m coins total\n        //reward begins at 50 and is cut in half every reward era (as tokens are mined)\n        function getMiningReward() public constant returns (uint) {\n            //once we get half way thru the coins, only get 25 per block\n\n             //every reward era, the reward amount halves.\n\n             return (BASE_MINING_REWARD * 10**uint(decimals) ).div( 2**rewardEra ) ;\n\n        }\n\n        //help debug mining software\n        function getMintDigest(uint256 nonce, bytes32 challenge_digest, bytes32 challenge_number) public view returns (bytes32 digesttest) {\n\n            bytes32 digest = keccak256(challenge_number,msg.sender,nonce);\n\n            return digest;\n\n          }\n\n            //help debug mining software\n          function checkMintSolution(uint256 nonce, bytes32 challenge_digest, bytes32 challenge_number, uint testTarget) public view returns (bool success) {\n\n              bytes32 digest = keccak256(challenge_number,msg.sender,nonce);\n\n              if(uint256(digest) > testTarget) revert();\n\n              return (digest == challenge_digest);\n\n            }\n\n\n\n        // ------------------------------------------------------------------------\n\n        // Total supply\n\n        // ------------------------------------------------------------------------\n\n        function totalSupply() public constant returns (uint) {\n\n            return totalSupply  - balances[address(0)];\n\n        }\n\n\n\n        // ------------------------------------------------------------------------\n\n        // Get the token balance for account `tokenOwner`\n\n        // ------------------------------------------------------------------------\n\n        function balanceOf(address tokenOwner) public constant returns (uint balance) {\n\n            return balances[tokenOwner];\n\n        }\n\n\n\n        // ------------------------------------------------------------------------\n\n        // Transfer the balance from token owner's account to `to` account\n\n        // - Owner's account must have sufficient balance to transfer\n\n        // - 0 value transfers are allowed\n\n        // ------------------------------------------------------------------------\n\n        function transfer(address to, uint tokens) public returns (bool success) {\n\n            balances[msg.sender] = balances[msg.sender].sub(tokens);\n\n            balances[to] = balances[to].add(tokens);\n\n            Transfer(msg.sender, to, tokens);\n\n            return true;\n\n        }\n\n\n\n        // ------------------------------------------------------------------------\n\n        // Token owner can approve for `spender` to transferFrom(...) `tokens`\n\n        // from the token owner's account\n\n        //\n\n        // https://github.com/ethereum/EIPs/blob/master/EIPS/eip-20-token-standard.md\n\n        // recommends that there are no checks for the approval double-spend attack\n\n        // as this should be implemented in user interfaces\n\n        // ------------------------------------------------------------------------\n\n        function approve(address spender, uint tokens) public returns (bool success) {\n\n            allowed[msg.sender][spender] = tokens;\n\n            Approval(msg.sender, spender, tokens);\n\n            return true;\n\n        }\n\n\n\n        // ------------------------------------------------------------------------\n\n        // Transfer `tokens` from the `from` account to the `to` account\n\n        //\n\n        // The calling account must already have sufficient tokens approve(...)-d\n\n        // for spending from the `from` account and\n\n        // - From account must have sufficient balance to transfer\n\n        // - Spender must have sufficient allowance to transfer\n\n        // - 0 value transfers are allowed\n\n        // ------------------------------------------------------------------------\n\n        function transferFrom(address from, address to, uint tokens) public returns (bool success) {\n\n            balances[from] = balances[from].sub(tokens);\n\n            allowed[from][msg.sender] = allowed[from][msg.sender].sub(tokens);\n\n            balances[to] = balances[to].add(tokens);\n\n            Transfer(from, to, tokens);\n\n            return true;\n\n        }\n\n\n\n        // ------------------------------------------------------------------------\n\n        // Returns the amount of tokens approved by the owner that can be\n\n        // transferred to the spender's account\n\n        // ------------------------------------------------------------------------\n\n        function allowance(address tokenOwner, address spender) public constant returns (uint remaining) {\n\n            return allowed[tokenOwner][spender];\n\n        }\n\n\n\n        // ------------------------------------------------------------------------\n\n        // Token owner can approve for `spender` to transferFrom(...) `tokens`\n\n        // from the token owner's account. The `spender` contract function\n\n        // `receiveApproval(...)` is then executed\n\n        // ------------------------------------------------------------------------\n\n        function approveAndCall(address spender, uint tokens, bytes data) public returns (bool success) {\n\n            allowed[msg.sender][spender] = tokens;\n\n            Approval(msg.sender, spender, tokens);\n\n            ApproveAndCallFallBack(spender).receiveApproval(msg.sender, tokens, this, data);\n\n            return true;\n\n        }\n\n\n\n        // ------------------------------------------------------------------------\n\n        // Don't accept ETH\n\n        // ------------------------------------------------------------------------\n\n        function () public payable {\n\n            revert();\n\n        }\n\n\n\n        // ------------------------------------------------------------------------\n\n        // Owner can transfer out any accidentally sent ERC20 tokens\n\n        // ------------------------------------------------------------------------\n\n        function transferAnyERC20Token(address tokenAddress, uint tokens) public onlyOwner returns (bool success) {\n\n            return EIP20Interface(tokenAddress).transfer(owner, tokens);\n\n        }\n\n    }\n\n\n\n    contract ApproveAndCallFallBack {\n\n        function receiveApproval(address from, uint256 tokens, address token, bytes data) public;\n\n    }\n",
  "sourcePath": "/home/andy/dev/ERC541-Spec/contracts/EIP541.sol",
  "compiler": {
    "name": "solc",
    "version": "0.4.18+commit.9cf6e910.Emscripten.clang"
  },
  "schemaVersion": "1.0.1",
  "updatedAt": "2018-03-20T18:16:27.310Z"
}